:040000007FEF00F09E
:10000800FACF06F0FBCF07F0E9CF08F0EACF09F006
:10001800E1CF0AF0E2CF0BF0D9CF0CF0DACF0DF038
:10002800F3CF0EF0F4CF0FF0F6CF10F0F7CF11F0BA
:10003800F8CF12F0F5CF13F0F0A201D001D03ED0E6
:100048008A98046EFF0E016E045091EC01F0146E54
:100058008A8814AA01D001D00DD0046E070E026E52
:100068000450056E200E036E055079EC01F0000E69
:10007800426E00D014A801D001D011D0046E070E32
:10008800026E0450056E100E036E055079EC01F0F7
:100098008A860D0EE82EFED700F08A9600D014A0AE
:1000A80001D001D009D08A98046EE10E016E045087
:1000B80091EC01F08A8800D0F09200D013C0F5FFCF
:1000C80012C0F8FF11C0F7FF10C0F6FF0FC0F4FF11
:1000D8000EC0F3FF0DC0DAFF0CC0D9FF0BC0E2FF62
:1000E8000AC0E1FF09C0EAFF08C0E9FF07C0FBFF3B
:1000F80006C0FAFF11009CEF01F0206E000E326E70
:1001080020505FEC01F0000E166E050E156E3AECED
:1001180001F0F00E95160F0E8C12F28CF28EB2ECE6
:1001280000F002D001D000D025EC01F00009D8B4CD
:1001380001D001D0F9D700D0000E1C6E210E1B6E25
:10014800DEEC00F0316E21C032F00F0E8C1221501F
:10015800FF0A8C16E9D7E8D77FEF00F0186E050E76
:10016800166E1850196E020E176E19506CEC01F0CD
:10017800186E060E166E1850196E260E176E195048
:100188006CEC01F0186E110E166E1850196E100EE8
:10019800176E19506CEC01F0000E426E186E000ECE
:1001A800166E1850196E4F0E176E19506CEC01F040
:1001B8008A8612008A981D6E610E156E1D5086EC97
:1001C80001F01F6E1BC015F01CC016F01BC017F005
:1001D8001CC018F0000E1A6E100E196E02EC01F019
:1001E8008A881D6E070E166E1D501E6E400E176E05
:1001F8001E506CEC01F01F5000D012001AD015C030
:10020800D9FF16C0DAFFDF50C96E00D09EA601D014
:1002180001D0FCD79E9617C0D9FF18C0DAFFC9CF06
:10022800DFFF1906D8A01A06154A162A174A182AEF
:1002380000D01A501910D8A401D001D0E0D700D0AE
:1002480012004250D8B401D001D003D0000E0DD016
:100258000CD08A98166EFF0E156E165086EC01F0BB
:10026800176E8A881750400B00D012000BD0340E3E
:10027800176EF10EE82EFED7172EFCD700D0150604
:10028800D8A0160616501510D8A401D001D0EFD763
:1002980000D01200C69A94880F010F013A99928AE9
:1002A800949A9496C698C78CC78EC690C692C694E0
:1002B800C696C68A1200939893968A968A880F01E2
:1002C8000F0139959384F198F0884EEC01F01200F3
:1002D8008A9816501F0B2009156E86EC01F017C07E
:1002E80015F086EC01F08A8812008A9802501F0BDC
:1002F8002009016E91EC01F003C001F091EC01F0CE
:100308008A88120015C0C9FF00D09EA601D001D06E
:10031800FCD79E96C95000D0120001C0C9FF00D07A
:100328009EA601D001D0FCD79E96C95000D01200DD
:1003380000EE33F0100EEE6AE806FDE1000181EFF1
:0203480000F0C3
:020000040020DA
:08000000FFFFFFFFFFFFFFFF00
:020000040030CA
:0E000000FF431E3CFFBF85FF0FC00FE00F4007
:00000001FF
