:040000007FEF00F09E
:10000800FACF06F0FBCF07F0E9CF08F0EACF09F006
:10001800E1CF0AF0E2CF0BF0D9CF0CF0DACF0DF038
:10002800F3CF0EF0F4CF0FF0F6CF10F0F7CF11F0BA
:10003800F8CF12F0F5CF13F0F0A201D001D03ED0E6
:100048008A98046EFF0E016E04509FEC02F0146E45
:100058008A8814AA01D001D00DD0046E070E026E52
:100068000450056E200E036E055087EC02F0000E5A
:100078004C6E00D014A801D001D011D0046E070E28
:10008800026E0450056E100E036E055087EC02F0E8
:100098008A860D0EE82EFED700F08A9600D014A0AE
:1000A80001D001D009D08A98046EE10E016E045087
:1000B8009FEC02F08A8800D0F09200D013C0F5FFC0
:1000C80012C0F8FF11C0F7FF10C0F6FF0FC0F4FF11
:1000D8000EC0F3FF0DC0DAFF0CC0D9FF0BC0E2FF62
:1000E8000AC0E1FF09C0EAFF08C0E9FF07C0FBFF3B
:1000F80006C0FAFF1100AAEF02F0236E050E166E75
:100108002350246E020E176E24507AEC02F0236EF0
:10011800060E166E2350246E260E176E24507AECA7
:1001280002F0236E000E166E2350246E4C0E176ECE
:1001380024507AEC02F0236E040E166E2350246EBF
:100148002F0E176E24507AEC02F09FD0236EE70E24
:10015800296E235029C028F028C027F027C026F090
:1001680026C025F0000E1F6E250E1E6E5EEC02F0F6
:10017800000E1F6E250E1E6E4DEC02F09AD0236EF7
:10018800C20E296E235029C028F028C027F027C0A6
:1001980026F026C025F0000E1F6E250E1E6E5EECA2
:1001A80002F0000E1F6E250E1E6E4DEC02F081D07F
:1001B800236EC20E296E235029C028F028C027F0CC
:1001C80027C026F0236EC30E256E2350000E1F6E27
:1001D800250E1E6E5EEC02F0000E1F6E250E1E6EC2
:1001E8004DEC02F066D0236EC20E296E235029C052
:1001F80028F028C027F027C026F0236EC40E256EED
:100208002350000E1F6E250E1E6E5EEC02F0000ECF
:100218001F6E250E1E6E4DEC02F04BD0236EC20EE3
:10022800296E235029C028F028C027F027C026F0BF
:10023800236EC50E256E2350000E1F6E250E1E6EF2
:100248005EEC02F0000E1F6E250E1E6E4DEC02F0E5
:1002580030D0236EC20E296E235029C028F028C042
:1002680027F027C026F0236EC60E256E2350000EF9
:100278001F6E250E1E6E5EEC02F0000E1F6E250E20
:100288001E6E4DEC02F015D014D02250000AD8B4DE
:100298005DD7010AD8B473D7030AD8B489D7010A3D
:1002A800D8B4A1D7070AD8B4B9D7010AD8B4D1D7D6
:1002B80000D0000E4C6E236E000E166E2350246E76
:1002C8004E0E176E24507AEC02F012002A6E000EC1
:1002D8003B6E2A5095988C886DEC02F0000E166ED5
:1002E800050E156E16EC02F0F28CF28E2A6E000ED8
:1002F800226E2A5081EC00F000D08C982A6E000EF5
:100308003C6E2A500F0E3C6401D001D002D011D0AF
:1003180010D03C50010D2B0EF324D96E000EF420A2
:10032800DA6E3CC0DFFF3C2A0F0E3C6401D001D0DE
:10033800F0D73BC02BF03B282C6E000E1B6E2B0E0B
:100348001A6E2A6E100E1C6E2A50C7EC01F03B2A5A
:100358000F0E3B6401D001D005D02A6E000E3B6E13
:100368002A5000D0000E166E320E156E16EC02F0F2
:100378008C88000E166E320E156E16EC02F0BDD784
:10038800BCD77FEF00F000D04C6601D001D0FCD77D
:100398008A96010E4C6E1D6E000E166E1D501E6E56
:1003A8004E0E176E1E507AEC02F08A981D6EE10E02
:1003B800156E1D5094EC02F08A888A981D6EA00E66
:1003C800156E1D5094EC02F01AC015F01BC016F003
:1003D8001CC017F0186AF9EC01F08A888A860D0E9D
:1003E800E82EFED700F08A96120014D015C0D9FF67
:1003F80016C0DAFFDF50C96E00D09EA601D001D02A
:10040800FCD79E96C9CF19F01706D8A01806154A2A
:10041800162A00D018501710D8A401D001D0E6D75A
:1004280000D012000BD0340E176EF10EE82EFED756
:10043800172EFCD700D01506D8A016061650151092
:10044800D8A401D001D0EFD700D012008A981A5052
:100458001F0B2009156E94EC02F01BC015F01CC090
:1004680016F01DC017F0186AF9EC01F08A8812001E
:10047800C69A94880F010F013A99928A949A949691
:10048800C698C78CC78EC690C692C694C696C68AAA
:1004980012008A96206E0A0E1A6E20501EC01BF09B
:1004A8001FC01CF0216E050E1D6E21502AEC02F0B3
:1004B8008A861200206E100E1A6E20501EC01BF085
:1004C8001FC01CF0216E050E1D6E21502AEC02F093
:1004D8001200939893968A968A880F010F0139958E
:1004E8009384F198F0883CEC02F012008A98165038
:1004F8001F0B2009156E94EC02F017C015F094EC50
:1005080002F08A8812008A9802501F0B2009016E97
:100518009FEC02F003C001F09FEC02F08A88120001
:1005280015C0C9FF00D09EA601D001D0FCD79E9669
:10053800C95000D0120001C0C9FF00D09EA601D04A
:1005480001D0FCD79E96C95000D0120000EE3DF0B5
:0E055800100EEE6AE806FDE100016AEF01F008
:020000040020DA
:08000000FFFFFFFFFFFFFFFF00
:020000040030CA
:0E000000FF431E3CFFBF85FF0FC00FE00F4007
:00000001FF
